{
  "_format": "hh-sol-artifact-1",
  "contractName": "TicTacToeFactory",
  "sourceName": "contracts/game0TicTacToe/TicTacToeFactory.sol",
  "abi": [
    {
      "inputs": [
        {
          "internalType": "address",
          "name": "_treasury",
          "type": "address"
        },
        {
          "internalType": "uint8",
          "name": "_fee",
          "type": "uint8"
        }
      ],
      "stateMutability": "nonpayable",
      "type": "constructor"
    },
    {
      "anonymous": false,
      "inputs": [
        {
          "indexed": false,
          "internalType": "address",
          "name": "game",
          "type": "address"
        },
        {
          "indexed": false,
          "internalType": "address",
          "name": "creator",
          "type": "address"
        }
      ],
      "name": "GameCreated",
      "type": "event"
    },
    {
      "anonymous": false,
      "inputs": [
        {
          "indexed": true,
          "internalType": "address",
          "name": "previousOwner",
          "type": "address"
        },
        {
          "indexed": true,
          "internalType": "address",
          "name": "newOwner",
          "type": "address"
        }
      ],
      "name": "OwnershipTransferred",
      "type": "event"
    },
    {
      "inputs": [],
      "name": "birthdayBlock",
      "outputs": [
        {
          "internalType": "uint256",
          "name": "",
          "type": "uint256"
        }
      ],
      "stateMutability": "view",
      "type": "function"
    },
    {
      "inputs": [
        {
          "internalType": "bytes",
          "name": "data",
          "type": "bytes"
        }
      ],
      "name": "createGame",
      "outputs": [],
      "stateMutability": "nonpayable",
      "type": "function"
    },
    {
      "inputs": [],
      "name": "currentTime",
      "outputs": [
        {
          "internalType": "uint256",
          "name": "",
          "type": "uint256"
        }
      ],
      "stateMutability": "view",
      "type": "function"
    },
    {
      "inputs": [],
      "name": "fee",
      "outputs": [
        {
          "internalType": "uint8",
          "name": "",
          "type": "uint8"
        }
      ],
      "stateMutability": "view",
      "type": "function"
    },
    {
      "inputs": [
        {
          "internalType": "uint256",
          "name": "",
          "type": "uint256"
        }
      ],
      "name": "games",
      "outputs": [
        {
          "internalType": "contract IGame",
          "name": "",
          "type": "address"
        }
      ],
      "stateMutability": "view",
      "type": "function"
    },
    {
      "inputs": [],
      "name": "owner",
      "outputs": [
        {
          "internalType": "address",
          "name": "",
          "type": "address"
        }
      ],
      "stateMutability": "view",
      "type": "function"
    },
    {
      "inputs": [],
      "name": "renounceOwnership",
      "outputs": [],
      "stateMutability": "nonpayable",
      "type": "function"
    },
    {
      "inputs": [
        {
          "internalType": "address",
          "name": "newOwner",
          "type": "address"
        }
      ],
      "name": "transferOwnership",
      "outputs": [],
      "stateMutability": "nonpayable",
      "type": "function"
    },
    {
      "inputs": [],
      "name": "treasury",
      "outputs": [
        {
          "internalType": "address",
          "name": "",
          "type": "address"
        }
      ],
      "stateMutability": "view",
      "type": "function"
    }
  ],
  "bytecode": "0x60c060405234801561001057600080fd5b5060405161232938038061232983398101604081905261002f916100a9565b818161003a33610059565b6001600160a01b0390911660805260ff1660a0525050436002556100f5565b600080546001600160a01b038381166001600160a01b0319831681178455604051919092169283917f8be0079c531659141344cd1fd0a4f28419497f9722a3daafe3b4186f6b6457e09190a35050565b600080604083850312156100bc57600080fd5b82516001600160a01b03811681146100d357600080fd5b602084015190925060ff811681146100ea57600080fd5b809150509250929050565b60805160a0516122026101276000396000818161013f01526101e301526000818160e201526101c201526122026000f3fe608060405234801561001057600080fd5b50600436106100935760003560e01c80638da5cb5b116100665780638da5cb5b1461010c578063d17d77801461011d578063d18e81b314610134578063ddca3f431461013a578063f2fde38b1461017357600080fd5b8063117a5b9014610098578063556db4b5146100c857806361d027b3146100dd578063715018a614610104575b600080fd5b6100ab6100a6366004610607565b610186565b6040516001600160a01b0390911681526020015b60405180910390f35b6100db6100d6366004610636565b6101b0565b005b6100ab7f000000000000000000000000000000000000000000000000000000000000000081565b6100db610407565b6000546001600160a01b03166100ab565b61012660025481565b6040519081526020016100bf565b42610126565b6101617f000000000000000000000000000000000000000000000000000000000000000081565b60405160ff90911681526020016100bf565b6100db6101813660046106e7565b61041b565b6001818154811061019657600080fd5b6000918252602090912001546001600160a01b0316905081565b60006101bb82610499565b90506000307f00000000000000000000000000000000000000000000000000000000000000007f000000000000000000000000000000000000000000000000000000000000000060405161020e906105fa565b6001600160a01b03938416815292909116602083015260ff166040820152606001604051809103906000f08015801561024b573d6000803e3d6000fd5b50825160208401516040808601516060870151915163f24be8c560e01b815261ffff90941660048501526001600160a01b039283166024850152604484015260ff1660648301529192509082169063f24be8c590608401600060405180830381600087803b1580156102bc57600080fd5b505af11580156102d0573d6000803e3d6000fd5b50506001805480820182556000919091527fb10e2d527612073b26eecdfd717e6a320cf44b4afac2b0732d9fcbe2b7fa0cf60180546001600160a01b0319166001600160a01b038581169190911790915560208501511691506323b872dd90506103373390565b60408086015190516001600160e01b031960e085901b1681526001600160a01b039283166004820152918516602483015260448201526064016020604051808303816000875af115801561038f573d6000803e3d6000fd5b505050506040513d601f19601f820116820180604052508101906103b39190610717565b6103bf576103bf610739565b604080516001600160a01b038316815233602082015281517fb60d84e37a6658effce28870b1d123cb86f86409df5888679310c0f276e1f5d2929181900390910190a1505050565b61040f610550565b61041960006105aa565b565b610423610550565b6001600160a01b03811661048d5760405162461bcd60e51b815260206004820152602660248201527f4f776e61626c653a206e6577206f776e657220697320746865207a65726f206160448201526564647265737360d01b60648201526084015b60405180910390fd5b610496816105aa565b50565b60408051608081018252600080825260208201819052918101829052606081019190915281516037146105045760405162461bcd60e51b8152602060048201526013602482015272092dcecc2d8d2c840c8c2e8c240d8cadccee8d606b1b6044820152606401610484565b506002810151601682015160368301516037909301516040805160808101825261ffff90941684526001600160a01b0390921660208401529082019290925260ff909116606082015290565b6000546001600160a01b031633146104195760405162461bcd60e51b815260206004820181905260248201527f4f776e61626c653a2063616c6c6572206973206e6f7420746865206f776e65726044820152606401610484565b600080546001600160a01b038381166001600160a01b0319831681178455604051919092169283917f8be0079c531659141344cd1fd0a4f28419497f9722a3daafe3b4186f6b6457e09190a35050565b611a7d8061075083390190565b60006020828403121561061957600080fd5b5035919050565b634e487b7160e01b600052604160045260246000fd5b60006020828403121561064857600080fd5b813567ffffffffffffffff8082111561066057600080fd5b818401915084601f83011261067457600080fd5b81358181111561068657610686610620565b604051601f8201601f19908116603f011681019083821181831017156106ae576106ae610620565b816040528281528760208487010111156106c757600080fd5b826020860160208301376000928101602001929092525095945050505050565b6000602082840312156106f957600080fd5b81356001600160a01b038116811461071057600080fd5b9392505050565b60006020828403121561072957600080fd5b8151801515811461071057600080fd5b634e487b7160e01b600052600160045260246000fdfe60e06040526007805462ffffff60a01b1916600160a81b1790553480156200002657600080fd5b5060405162001a7d38038062001a7d83398101604081905262000049916200008d565b6001600160a01b03928316608052911660a05260ff1660c0524260055543600055620000e0565b80516001600160a01b03811681146200008857600080fd5b919050565b600080600060608486031215620000a357600080fd5b620000ae8462000070565b9250620000be6020850162000070565b9150604084015160ff81168114620000d557600080fd5b809150509250925092565b60805160a05160c0516119586200012560003960008181610310015261139201526000818161024501526114770152600081816102c50152610c1901526119586000f3fe608060405234801561001057600080fd5b506004361061014d5760003560e01c8063be9a6555116100c3578063deb612861161007c578063deb6128614610332578063dfbf53ae14610346578063ea8a1af01461035a578063f24be8c514610362578063fc0c546a14610375578063fddc77691461038e57600080fd5b8063be9a6555146102b8578063c45a0155146102c0578063d17d7780146102e7578063d30895e4146102f0578063dbbf2c4714610303578063ddca3f431461030b57600080fd5b806359a5f12d1161011557806359a5f12d1461021557806361d027b31461024057806370dea79a14610267578063944a28571461026f578063949d225d14610290578063b2f4bdb0146102af57600080fd5b8063200d2ed21461015257806322fcefbe1461017c578063429f5bb1146101935780635367762c146101a85780635700401e146101e3575b600080fd5b60075461016690600160b01b900460ff1681565b60405161017391906116c0565b60405180910390f35b61018560025481565b604051908152602001610173565b6101a66101a13660046116f0565b610397565b005b6101d66101b63660046116f0565b600860209081526000928352604080842090915290825290205460ff1681565b6040516101739190611737565b6003546101fc90610100900467ffffffffffffffff1681565b60405167ffffffffffffffff9091168152602001610173565b600754610228906001600160a01b031681565b6040516001600160a01b039091168152602001610173565b6102287f000000000000000000000000000000000000000000000000000000000000000081565b6101a66107e2565b60015461027d9061ffff1681565b60405161ffff9091168152602001610173565b60035461029d9060ff1681565b60405160ff9091168152602001610173565b61018560055481565b6101a661095e565b6102287f000000000000000000000000000000000000000000000000000000000000000081565b61018560005481565b600654610228906001600160a01b031681565b61027d600081565b61029d7f000000000000000000000000000000000000000000000000000000000000000081565b6007546101d690600160a81b900460ff1681565b6007546101d690600160a01b900460ff1681565b6101a6610ab5565b6101a661037036600461174b565b610c0e565b600154610228906201000090046001600160a01b031681565b61018560045481565b6000600754600160b01b900460ff1660038111156103b7576103b76116aa565b036103ff5760405162461bcd60e51b815260206004820152601360248201527211d85b59481a185cdb89dd081cdd185c9d1959606a1b60448201526064015b60405180910390fd5b6002600754600160b01b900460ff16600381111561041f5761041f6116aa565b0361045d5760405162461bcd60e51b815260206004820152600e60248201526d11d85b59481a185cc8195b99195960921b60448201526064016103f6565b6006546001600160a01b031633148061048057506007546001600160a01b031633145b6104d85760405162461bcd60e51b815260206004820152602360248201527f4f6e6c7920706c61796572732063616e2063616c6c20746869732066756e637460448201526234b7b760e91b60648201526084016103f6565b60035460ff9081169083161080156104f8575060035460ff908116908216105b61053c5760405162461bcd60e51b815260206004820152601560248201527424b73b30b634b2103937bb9037b91031b7b63ab6b760591b60448201526064016103f6565b600060ff80841660009081526008602090815260408083208685168452909152902054166002811115610571576105716116aa565b146105b65760405162461bcd60e51b815260206004820152601560248201527410d95b1b08185b1c9958591e481bd8d8dd5c1a5959605a1b60448201526064016103f6565b6001600754600160a81b900460ff1660028111156105d6576105d66116aa565b146105ec576007546001600160a01b03166105f9565b6006546001600160a01b03165b6001600160a01b0316336001600160a01b0316146106495760405162461bcd60e51b815260206004820152600d60248201526c2737ba103cb7bab9103a3ab93760991b60448201526064016103f6565b60075460ff8381166000908152600860209081526040808320868516845290915290208054600160a81b9093049091169160ff19166001836002811115610692576106926116aa565b0217905550426004556007546040517f7e25afa324fee392f64b9ffe3a73a2a3abfff6f8bbfa267ac0a96e995829712b916106dc91600160a81b90910460ff1690859085906117af565b60405180910390a16003546000906001906106fa9060ff16806117ed565b6107049190611804565b905061070e610d7d565b156107205761071b6112f5565b505050565b600354610100900467ffffffffffffffff168190036107415761071b6112f5565b6001600754600160a81b900460ff166002811115610761576107616116aa565b1461076d576001610770565b60025b6007805460ff60a81b1916600160a81b836002811115610792576107926116aa565b021790555060038054610100900467ffffffffffffffff169060016107b683611817565b91906101000a81548167ffffffffffffffff021916908367ffffffffffffffff16021790555050505050565b6000600754600160b01b900460ff166003811115610802576108026116aa565b036108455760405162461bcd60e51b815260206004820152601360248201527211d85b59481a185cdb89dd081cdd185c9d1959606a1b60448201526064016103f6565b6002600754600160b01b900460ff166003811115610865576108656116aa565b036108a35760405162461bcd60e51b815260206004820152600e60248201526d11d85b59481a185cc8195b99195960921b60448201526064016103f6565b60015460045442916108bb9161ffff9091169061183e565b106108fe5760405162461bcd60e51b81526020600482015260136024820152721d1a5b595bdd5d081a185cc81b9bdd081e595d606a1b60448201526064016103f6565b6001600754600160a81b900460ff16600281111561091e5761091e6116aa565b1461092a57600161092d565b60025b6007805460ff60a01b1916600160a01b83600281111561094f5761094f6116aa565b021790555061095c6112f5565b565b6000600754600160b01b900460ff16600381111561097e5761097e6116aa565b146109be5760405162461bcd60e51b815260206004820152601060248201526f11d85b59481a185cc81cdd185c9d195960821b60448201526064016103f6565b6001546002546040516323b872dd60e01b81523360048201523060248201526044810191909152620100009091046001600160a01b0316906323b872dd906064016020604051808303816000875af1158015610a1e573d6000803e3d6000fd5b505050506040513d601f19601f82011682018060405250810190610a429190611851565b610a4e57610a4e61187a565b60078054600162ff000160a01b0319163360ff60b01b191617600160b01b1790819055426004556040516001600160a01b0390911681527fb3e736faa4964dca0165113d691c436b6fb927baffb3e664f43e18663bdaad12906020015b60405180910390a1565b6006546001600160a01b03163314610b0f5760405162461bcd60e51b815260206004820152601c60248201527f4f6e6c792063726561746f722063616e2063616e63656c2067616d650000000060448201526064016103f6565b6000600754600160b01b900460ff166003811115610b2f57610b2f6116aa565b14610b6f5760405162461bcd60e51b815260206004820152601060248201526f11d85b59481a185cc81cdd185c9d195960821b60448201526064016103f6565b60015460025460405163a9059cbb60e01b81523360048201526024810191909152620100009091046001600160a01b03169063a9059cbb906044016020604051808303816000875af1158015610bc9573d6000803e3d6000fd5b505050506040513d601f19601f82011682018060405250810190610bed9190611851565b610bf957610bf961187a565b6007805460ff60b01b1916600360b01b179055565b336001600160a01b037f00000000000000000000000000000000000000000000000000000000000000001614610c745760405162461bcd60e51b815260206004820152600b60248201526a6e6f7420666163746f727960a81b60448201526064016103f6565b60038160ff1610158015610c8c575060648160ff1611155b610cc55760405162461bcd60e51b815260206004820152600a60248201526957726f6e672073697a6560b01b60448201526064016103f6565b603c8461ffff1610158015610ce0575061ffff8461ffff1611155b610d1c5760405162461bcd60e51b815260206004820152600d60248201526c15dc9bdb99c81d1a5b595bdd5d609a1b60448201526064016103f6565b60018054600680546001600160a01b031916321790556001600160a01b039490941662010000026001600160b01b031990941661ffff90951694909417929092179092556002919091556003805460ff90921660ff19909216919091179055565b6000805b600354610d939060029060ff16611890565b60ff168160ff1610156112ed5760005b600354610db59060029060ff16611890565b60ff168160ff1610156112da57600060ff80841660009081526008602090815260408083208685168452909152902054166002811115610df757610df76116aa565b146112c85760ff8216600090815260086020526040812090610e1a8360016118a9565b60ff9081168252602082019290925260400160002054166002811115610e4257610e426116aa565b60ff80841660009081526008602090815260408083208685168452909152902054166002811115610e7557610e756116aa565b148015610ef8575060ff8216600090815260086020526040812090610e9b8360026118a9565b60ff9081168252602082019290925260400160002054166002811115610ec357610ec36116aa565b60ff80841660009081526008602090815260408083208685168452909152902054166002811115610ef657610ef66116aa565b145b80610ffa575060086000610f0d8460016118a9565b60ff9081168252602080830193909352604091820160009081208583168252909352912054166002811115610f4457610f446116aa565b60ff80841660009081526008602090815260408083208685168452909152902054166002811115610f7757610f776116aa565b148015610ffa575060086000610f8e8460026118a9565b60ff9081168252602080830193909352604091820160009081208583168252909352912054166002811115610fc557610fc56116aa565b60ff80841660009081526008602090815260408083208685168452909152902054166002811115610ff857610ff86116aa565b145b8061112457506008600061100f8460016118a9565b60ff1660ff168152602001908152602001600020600082600161103291906118a9565b60ff908116825260208201929092526040016000205416600281111561105a5761105a6116aa565b60ff8084166000908152600860209081526040808320868516845290915290205416600281111561108d5761108d6116aa565b1480156111245750600860006110a48460026118a9565b60ff1660ff16815260200190815260200160002060008260026110c791906118a9565b60ff90811682526020820192909252604001600020541660028111156110ef576110ef6116aa565b60ff80841660009081526008602090815260408083208685168452909152902054166002811115611122576111226116aa565b145b8061126c575060018260ff16118015611140575060018160ff16115b80156111d6575060086000611156600185611890565b60ff1660ff16815260200190815260200160002060006001836111799190611890565b60ff90811682526020820192909252604001600020541660028111156111a1576111a16116aa565b60ff808416600090815260086020908152604080832086851684529091529020541660028111156111d4576111d46116aa565b145b801561126c5750600860006111ec600285611890565b60ff1660ff168152602001908152602001600020600060028361120f9190611890565b60ff9081168252602082019290925260400160002054166002811115611237576112376116aa565b60ff8084166000908152600860209081526040808320868516845290915290205416600281111561126a5761126a6116aa565b145b156112c85760ff808316600090815260086020908152604080832085851684529091529020546007805491909216919060ff60a01b1916600160a01b8360028111156112ba576112ba6116aa565b021790555060019250505090565b806112d2816118c2565b915050610da3565b50806112e5816118c2565b915050610d81565b506000905090565b6007805460ff60b01b1916600160b11b1790819055600090600160a01b900460ff166002811115611328576113286116aa565b146115575760006001600754600160a01b900460ff16600281111561134f5761134f6116aa565b14611365576007546001600160a01b0316611372565b6006546001600160a01b03165b90506000600254600261138591906117ed565b9050600060646113b860ff7f000000000000000000000000000000000000000000000000000000000000000016846117ed565b6113c291906118e1565b905060006113d08284611804565b60015460405163a9059cbb60e01b81526001600160a01b03878116600483015260248201849052929350620100009091049091169063a9059cbb906044016020604051808303816000875af115801561142d573d6000803e3d6000fd5b505050506040513d601f19601f820116820180604052508101906114519190611851565b61145d5761145d61187a565b60015460405163a9059cbb60e01b81526001600160a01b037f00000000000000000000000000000000000000000000000000000000000000008116600483015260248201859052620100009092049091169063a9059cbb906044016020604051808303816000875af11580156114d7573d6000803e3d6000fd5b505050506040513d601f19601f820116820180604052508101906114fb9190611851565b6115075761150761187a565b7fa6690bb167a8f1c71373dfba160f67320232697264f791ad7d54abfcca17484d600760149054906101000a900460ff16828460405161154993929190611903565b60405180910390a150505050565b60015460065460025460405163a9059cbb60e01b81526001600160a01b039283166004820152602481019190915262010000909204169063a9059cbb906044016020604051808303816000875af11580156115b6573d6000803e3d6000fd5b505050506040513d601f19601f820116820180604052508101906115da9190611851565b6115e6576115e661187a565b60015460075460025460405163a9059cbb60e01b81526001600160a01b039283166004820152602481019190915262010000909204169063a9059cbb906044016020604051808303816000875af1158015611645573d6000803e3d6000fd5b505050506040513d601f19601f820116820180604052508101906116699190611851565b6116755761167561187a565b7fa6690bb167a8f1c71373dfba160f67320232697264f791ad7d54abfcca17484d6000806000604051610aab93929190611903565b634e487b7160e01b600052602160045260246000fd5b60208101600483106116d4576116d46116aa565b91905290565b803560ff811681146116eb57600080fd5b919050565b6000806040838503121561170357600080fd5b61170c836116da565b915061171a602084016116da565b90509250929050565b60038110611733576117336116aa565b9052565b602081016117458284611723565b92915050565b6000806000806080858703121561176157600080fd5b843561ffff8116811461177357600080fd5b935060208501356001600160a01b038116811461178f57600080fd5b9250604085013591506117a4606086016116da565b905092959194509250565b606081016117bd8286611723565b60ff8416602083015260ff83166040830152949350505050565b634e487b7160e01b600052601160045260246000fd5b8082028115828204841417611745576117456117d7565b81810381811115611745576117456117d7565b600067ffffffffffffffff808316818103611834576118346117d7565b6001019392505050565b80820180821115611745576117456117d7565b60006020828403121561186357600080fd5b8151801515811461187357600080fd5b9392505050565b634e487b7160e01b600052600160045260246000fd5b60ff8281168282160390811115611745576117456117d7565b60ff8181168382160190811115611745576117456117d7565b600060ff821660ff81036118d8576118d86117d7565b60010192915050565b6000826118fe57634e487b7160e01b600052601260045260246000fd5b500490565b606081016119118286611723565b60208201939093526040015291905056fea264697066735822122063e2af0e2348943b7400c756a1a06f0a30c0f171da56b03187178842e7162d2d64736f6c63430008130033a2646970667358221220c4901e95d2b5b2d7f45f77c3e839d85baa33d7909fc8c7c7c1098e0243a28f0a64736f6c63430008130033",
  "linkReferences": {},
  "deployedLinkReferences": {}
}