{
  "_format": "hh-sol-artifact-1",
  "contractName": "Factory",
  "sourceName": "contracts/Factory.sol",
  "abi": [
    {
      "inputs": [
        {
          "internalType": "address",
          "name": "_treasury",
          "type": "address"
        },
        {
          "internalType": "uint8",
          "name": "_fee",
          "type": "uint8"
        }
      ],
      "stateMutability": "nonpayable",
      "type": "constructor"
    },
    {
      "anonymous": false,
      "inputs": [
        {
          "indexed": false,
          "internalType": "address",
          "name": "game",
          "type": "address"
        },
        {
          "indexed": false,
          "internalType": "address",
          "name": "creator",
          "type": "address"
        }
      ],
      "name": "GameCreated",
      "type": "event"
    },
    {
      "anonymous": false,
      "inputs": [
        {
          "indexed": true,
          "internalType": "address",
          "name": "previousOwner",
          "type": "address"
        },
        {
          "indexed": true,
          "internalType": "address",
          "name": "newOwner",
          "type": "address"
        }
      ],
      "name": "OwnershipTransferred",
      "type": "event"
    },
    {
      "inputs": [],
      "name": "birthdayBlock",
      "outputs": [
        {
          "internalType": "uint256",
          "name": "",
          "type": "uint256"
        }
      ],
      "stateMutability": "view",
      "type": "function"
    },
    {
      "inputs": [
        {
          "internalType": "bytes",
          "name": "data",
          "type": "bytes"
        }
      ],
      "name": "createGame",
      "outputs": [],
      "stateMutability": "nonpayable",
      "type": "function"
    },
    {
      "inputs": [],
      "name": "currentTime",
      "outputs": [
        {
          "internalType": "uint256",
          "name": "",
          "type": "uint256"
        }
      ],
      "stateMutability": "view",
      "type": "function"
    },
    {
      "inputs": [],
      "name": "fee",
      "outputs": [
        {
          "internalType": "uint8",
          "name": "",
          "type": "uint8"
        }
      ],
      "stateMutability": "view",
      "type": "function"
    },
    {
      "inputs": [
        {
          "internalType": "uint256",
          "name": "",
          "type": "uint256"
        }
      ],
      "name": "games",
      "outputs": [
        {
          "internalType": "contract IGame",
          "name": "",
          "type": "address"
        }
      ],
      "stateMutability": "view",
      "type": "function"
    },
    {
      "inputs": [],
      "name": "owner",
      "outputs": [
        {
          "internalType": "address",
          "name": "",
          "type": "address"
        }
      ],
      "stateMutability": "view",
      "type": "function"
    },
    {
      "inputs": [],
      "name": "renounceOwnership",
      "outputs": [],
      "stateMutability": "nonpayable",
      "type": "function"
    },
    {
      "inputs": [
        {
          "internalType": "address",
          "name": "newOwner",
          "type": "address"
        }
      ],
      "name": "transferOwnership",
      "outputs": [],
      "stateMutability": "nonpayable",
      "type": "function"
    },
    {
      "inputs": [],
      "name": "treasury",
      "outputs": [
        {
          "internalType": "address",
          "name": "",
          "type": "address"
        }
      ],
      "stateMutability": "view",
      "type": "function"
    }
  ],
  "bytecode": "0x60c060405234801561001057600080fd5b5060405161054238038061054283398101604081905261002f916100a5565b61003833610055565b6001600160a01b0390911660805260ff1660a052436002556100f1565b600080546001600160a01b038381166001600160a01b0319831681178455604051919092169283917f8be0079c531659141344cd1fd0a4f28419497f9722a3daafe3b4186f6b6457e09190a35050565b600080604083850312156100b857600080fd5b82516001600160a01b03811681146100cf57600080fd5b602084015190925060ff811681146100e657600080fd5b809150509250929050565b60805160a05161042d610115600039600061013d0152600060e0015261042d6000f3fe608060405234801561001057600080fd5b50600436106100935760003560e01c80638da5cb5b116100665780638da5cb5b1461010a578063d17d77801461011b578063d18e81b314610132578063ddca3f4314610138578063f2fde38b1461017157600080fd5b8063117a5b9014610098578063556db4b5146100c857806361d027b3146100db578063715018a614610102575b600080fd5b6100ab6100a63660046102e7565b610184565b6040516001600160a01b0390911681526020015b60405180910390f35b6100d96100d6366004610316565b50565b005b6100ab7f000000000000000000000000000000000000000000000000000000000000000081565b6100d96101ae565b6000546001600160a01b03166100ab565b61012460025481565b6040519081526020016100bf565b42610124565b61015f7f000000000000000000000000000000000000000000000000000000000000000081565b60405160ff90911681526020016100bf565b6100d961017f3660046103c7565b6101c2565b6001818154811061019457600080fd5b6000918252602090912001546001600160a01b0316905081565b6101b661023d565b6101c06000610297565b565b6101ca61023d565b6001600160a01b0381166102345760405162461bcd60e51b815260206004820152602660248201527f4f776e61626c653a206e6577206f776e657220697320746865207a65726f206160448201526564647265737360d01b60648201526084015b60405180910390fd5b6100d681610297565b6000546001600160a01b031633146101c05760405162461bcd60e51b815260206004820181905260248201527f4f776e61626c653a2063616c6c6572206973206e6f7420746865206f776e6572604482015260640161022b565b600080546001600160a01b038381166001600160a01b0319831681178455604051919092169283917f8be0079c531659141344cd1fd0a4f28419497f9722a3daafe3b4186f6b6457e09190a35050565b6000602082840312156102f957600080fd5b5035919050565b634e487b7160e01b600052604160045260246000fd5b60006020828403121561032857600080fd5b813567ffffffffffffffff8082111561034057600080fd5b818401915084601f83011261035457600080fd5b81358181111561036657610366610300565b604051601f8201601f19908116603f0116810190838211818310171561038e5761038e610300565b816040528281528760208487010111156103a757600080fd5b826020860160208301376000928101602001929092525095945050505050565b6000602082840312156103d957600080fd5b81356001600160a01b03811681146103f057600080fd5b939250505056fea2646970667358221220a7a1858eb0b6380a7801533ff6a1d1c47edcba71e4ead76bfa0b318532ca93ae64736f6c63430008130033",
  "linkReferences": {},
  "deployedLinkReferences": {}
}